:020000020000FC
:100000000FEF0DBF08E00EBF3F065B4F666D7D072B
:100010007F67777C395E797120E02093C10000E82A
:100020000093610003E0009361000E9473002FEFD2
:1000300027B920E028B92FEF2AB920E02BB920E01A
:1000400024B923E025B913E040E0E8E0F0E0849132
:100050008BB905B300FD0E9440000E943000F9CF2B
:1000600023B11217B1F30E944A0023B1121789F38A
:10007000122F20FF0E947C0021FF0E948100089522
:10008000A89A02EB06BD4395423119F444270E9419
:100090007800089560E063956030E9F760E063956B
:1000A0006030E9F760E063956030E9F760E0639500
:1000B0006030E9F760E063956030E9F760E06395F0
:1000C0006030E9F760E063956030E9F760E06395E0
:1000D0006030E9F760E063956030E9F760E06395D0
:1000E0006030E9F7089504E005BD02EB06BD089510
:1000F00033953F7038B908955395319644914BB973
:0C01000008955A95319744914BB9089529
:00000001FF
