:020000020000FC
:100000000FEF0DBF08E00EBF3F065B4F666D7D072B
:100010007F67777C395E797100E00093C10000E86A
:100020000093610003E00093610005E005BD6CE30F
:1000300066BD0FEF07B900E008B90FEF0AB900E09D
:100040000BB90FEF07B900E008B910E014B91CE0D4
:1000500015B9E8E0F0E084918BB92CE040E000E0D5
:1000600050E080E090E011D00E94380056D0FBCFE5
:1000700013B1211749F015D013B1211729F0212F01
:1000800012FF3DD013FF3FD0089505B300FF089540
:10009000A89A6CE366BD43954A3011F444272AD0F0
:1000A000089530E033953030E9F730E03395303063
:1000B000E9F730E033953030E9F730E03395303010
:1000C000E9F730E033953030E9F730E03395303000
:1000D000E9F730E033953030E9F730E033953030F0
:1000E000E9F730E033953030E9F730E033953030E0
:1000F000E9F7089553955F7058B909D0089583952D
:100100008F7005D008958A958F7001D00895E8E02A
:10011000F0E0E80F94919BB90895581729F4449A98
:100120005527F5DF71E00895581719F4449870E0E9
:040130000895089591
:00000001FF
